:020000040800F2
:100000000810002025020008E5020008DD020008B3
:10001000E1020008D50200085D03000800000000AE
:10002000000000000000000000000000ED020008D9
:10003000D902000800000000E9020008F1020008EF
:100040003F0200083F0200083F0200083F0200088C
:100050003F0200083F0200083F0200083F0200087C
:100060003F0200083F0200083F0200083F0200086C
:100070003F0200083F0200083F0200083F0200085C
:100080003F0200083F0200083F0200083F0200084C
:10009000510300083F0200083F0200083F02000829
:1000A0003F0200083F0200083F0200083F0200082C
:1000B0003F0200083F0200083F0200083F0200081C
:1000C0003F0200083F0200083F0200083F0200080C
:1000D0003F0200083F0200083F0200083F020008FC
:1000E0003F0200083F0200083F0200083F020008EC
:1000F0003F0200083F0200083F0200083F020008DC
:100100003F0200083F0200083F0200083F020008CB
:100110003F0200083F0200083F0200083F020008BB
:100120003F0200083F0200083F0200083F020008AB
:100130003F0200083F0200083F0200083F0200089B
:1001400000000000000000000000000000000000AF
:100150003F0200083F0200083F0200083F0200087B
:100160003F0200083F0200083F0200083F0200086B
:100170003F0200083F0200083F0200083F0200085B
:100180003F02000800F002F800F03CF80AA090E8F6
:10019000000C82448344AAF10107DA4501D100F042
:1001A00031F8AFF2090EBAE80F0013F0010F18BFD3
:1001B000FB1A43F00103184794280000B4280000FC
:1001C000103A24BF78C878C1FAD8520724BF30C883
:1001D00030C144BF04680C60704700000023002455
:1001E00000250026103A28BF78C1FBD8520728BF47
:1001F00030C148BF0B6070471FB502F002FC1FBD45
:1002000010B510BD00F033F81146FFF7F5FF01F00F
:10021000A9F800F051F803B4FFF7F2FF03BC00F0B7
:100220009FF800000948804709480047FEE7FEE7BD
:10023000FEE7FEE7FEE7FEE7FEE7FEE7FEE7FEE796
:1002400004480549054A064B70470000F5020008BE
:1002500085010008080A002008100020080C002072
:10026000080C00207047704770477047704775460C
:1002700000F02CF8AE4605006946534620F0070012
:10028000854618B020B5FFF7DBFFBDE820404FF0F2
:1002900000064FF000074FF000084FF0000BAC468F
:1002A000ACE8C009ACE8C009ACE8C009ACE8C009DA
:1002B00021F007018D46704710B50446AFF300806A
:1002C0002046BDE81040FFF7A6BF00000048704779
:1002D00028010020FEE7000070470000FEE7000054
:1002E000FEE7000070470000704700007047000004
:1002F000704700004EF68850CEF20000026841F2CE
:10030000000142F47002C4F2020102600A6842F085
:1003100001020A600A689207FCD54A6822F00302CB
:100320004A6000BF4A6812F00C0FFBD10A684FF612
:10033000FF73CFF6F2631A400A6000224A600A6334
:100340004FF41F028A604FF0006140F8801C704734
:1003500040F2D070C2F2000002F09CBAFEE700004A
:100360007047000045F60402C4F201021368002839
:1003700023F0020318BF02331360106861F300001A
:100380001060704745F60C01C4F201010860704727
:1003900045F61001C4F201010860704745F61401EA
:1003A000C4F20101086070472DE9F04182B00420D9
:1003B00001F006F940F22010C2F2000000684DF68C
:1003C0008361C4F21B31A0FB0101880C40F28C1147
:1003D000C2F20001086008684FF47A71484340F2A5
:1003E0008811C2F2000140F2F8080860C2F2000869
:1003F000D8F80000012100F0D9F96C46204600F041
:10040000AFFD40F20416C2F2000640F20C1531882E
:10041000C2F2000540F200472868C0F210170091B0
:100420002146019700F0A6FDD8F80400012100F054
:10043000BDF96C46204600F093FD71886868009114
:100440002146019700F096FDD8F80800012100F040
:10045000ADF96C46204600F083FDB188A868009194
:100460002146019700F086FD308800281CBF2968CE
:100470000861708800281CBF69680861B08800287E
:100480001CBFA96808610220C0F2180001210125E3
:1004900000F08CF96C46204600F062FD42F6000048
:1004A000C0F20010CDE9005040F60000C4F2010097
:1004B000214600F05FFD02B0BDE8F08110B581215A
:1004C000044601F025FF2046012101F021FF002014
:1004D00010BD0000B0B5416800254C6A002102F053
:1004E000CDF8D4F8F40409284FF0000008BFC4F890
:1004F000F454B0BD002070470020704780B502F072
:10050000C5F8002080BD0000B0B5044640688121D8
:10051000456A20460322402301F03AFF204601218C
:100520000322402301F034FF05F5956220460121A6
:10053000402301F04FFF0020B0BD0000B0B50446DD
:100540004068456A204602F099F805F5956582B243
:100550002046294602F0A6F8204601212A464023DB
:1005600001F038FF0020B0BD80B542680B78D2F8AA
:1005700024C013F060020FD0202A1BD14A78023A1F
:10058000092A17D8DFE802F0051A16161616161DE6
:10059000272C0CF2EC4142E04A78013A0A2A09D8A9
:1005A000DFE802F00608060808230808083B4200B6
:1005B000002080BD01F0B0FC002080BD0CF59D61E5
:1005C0002DE00922CCF8F424CA880CF59F6101F0D3
:1005D0006DFC002080BDC878CCF8EC04002080BD04
:1005E0008878CCF8E804002080BDCA78C988130256
:1005F0000922B3F5085F08BF20228A4228BF0A46B5
:1006000040F2100140F2800CC2F20001C2F2000C74
:10061000B3F5085F08BF614602E00CF59E61012258
:1006200001F064FC002080BD4888CCF8F004002074
:1006300080BD00000020704743F20000C4F20200B9
:100640000068704743F20800C4F20200016841F0FC
:10065000010101607047000043F20001C4F2020191
:10066000086008687047000041F20401C4F202010A
:100670000A6800F00F0022F0F00242EA0010086061
:100680007047000041F20401C4F202010A6800F060
:10069000070022F4E06242EA002008607047000090
:1006A00041F20401C4F202010A6800F0070022F4DA
:1006B000605242EAC02008607047000041F25401D5
:1006C000C4F202010A68012822F0300208BF303269
:1006D0000A607047042888BF7047DFE800F0030C09
:1006E00019262F0041F20000C4F20200026861F3F3
:1006F00000020260704741F20000C4F2020002688A
:1007000001F0010122F4803242EA014101607047A8
:1007100041F20000C4F20200026801F0010122F07F
:10072000807242EA01610160704741F20000C4F248
:100730000200026A61F300020262704741F20000A7
:10074000C4F20200426A61F3000242627047000094
:1007500041F20002010CC4F20202895800F01F00AD
:1007600021FA00F000F001007047000041F254014E
:10077000C4F202010A6800F0030022F4405242EA87
:10078000003008607047000041F200010020C4F210
:10079000020100BF0A68920304D4B0F5405F00F183
:1007A0000100F7D30868C0F34040704741F20002EF
:1007B00000F01F034FF0010CC4F2020201290CFAF1
:1007C00003F14FEA1040835814BF23EA0101194393
:1007D0008150704741F2000200F01F034FF0010CFE
:1007E000C4F2020201290CFA03F14FEA10408358C7
:1007F00014BF23EA010119438150704780B541F2CB
:10080000040EC4F2020EDEF800C070B14CF4803366
:10081000CEF80030DEF800C0012814BF4CF40030E0
:100820002CF40030CEF8000009E02CF48030CEF833
:100830000000DEF82C0040F00070CEF82C00DEF84E
:10084000000061F39540CEF80000DEF800000909D1
:1008500061F35E70CEF80000DEF8000020F000408A
:1008600040EAC270CEF8000080BD000041F20000F6
:10087000C4F20200016841F00101016001688907CA
:10088000FCD5416821F00301416000BF416811F0CF
:100890000C0FFBD101684FF6FF72CFF6F2621140E8
:1008A00001600021416001634FF41F0181607047C6
:1008B00041F20401C4F202010A6860F301020A6015
:1008C0007047000041F20400C4F202000068C0F367
:1008D0008100704741F20401C4F202010A6860F32A
:1008E00097520A600A68800860F3DB620A6070470A
:1008F00041F254010128C4F2020109D151F8242C1B
:1009000042F0007241F8242C0A6842F400720A6036
:100910000A6800F0010022F4807242EA00200860B8
:100920007047000080B5002808BF80BD4EF210015E
:1009300040F2881ECEF20001C2F2000E4FF0320CDF
:10094000002300BF82B2332A06D3DEF800203238FB
:1009500002FB0CF24A6004E0DEF8000050434860FD
:1009600000208B600A6842F001020A600A6802F007
:100970000112012AFAD00A6822F001020A60020478
:100980008B60DFD180BD000042F21000C4F2020093
:10099000016841F080010160016C41F08001016457
:1009A00070470000014600226FF31201C0F60802F2
:1009B00091421ED0B1F1006F37D142F20C01C4F266
:1009C00002014A6842F002024A608860486840F0CA
:1009D000400048600868C00750D10868400758D4F4
:1009E0000868C0064FF0020058BF032000286FD1EE
:1009F00051E042F20C01C4F202014A6C42F00202E0
:100A00004A648864486C40F040004864086CC00741
:100A100037D1086C400760D4086CC0064FF0020064
:100A200058BF0320002877D159E0B0F1046F3CBFD4
:100A30000320704742F20C01C4F20201D1F8842075
:100A400042F00202C1F88420C1F88800D1F8840085
:100A500040F04000C1F88400D1F88000C00714D1F4
:100A6000D1F8800040075CD4D1F88000C0064FF078
:100A7000020058BF0320002872D154E0002038BB88
:100A800009E00020002847D129E00020002867D194
:100A900049E00120E0B94FF0804200BF0868C0077C
:100AA0000AD10868400709D40868C0064FF0020060
:100AB00058BF032003E000BF002000E00120A2F1A6
:100AC000010310B9012A1A46E8D1002B08BF0420FF
:100AD0004A6822F002024A6070470120E0B94FF0F4
:100AE000804200BF086CC0070AD1086C400709D4D7
:100AF000086CC0064FF0020058BF032003E000BF9F
:100B0000002000E00120A2F1010310B9012A1A46D9
:100B1000E8D1002B08BF04204A6C22F002024A648C
:100B200070470120E0B90222D1F88000C0070BD144
:100B3000D1F88000400709D4D1F88000C0064FF0FA
:100B4000020058BF032002E0002000E0012002F173
:100B5000010310B9002A1A46E6D1012B08BF042070
:100B6000D1F8842022F00202C1F884204FF0046101
:100B7000096841F20001C0F64001096842F2000133
:100B8000C0F640010968704742F2040040F22311A8
:100B900048F6AB12C4F20200C4F26751CCF6EF5231
:100BA0000160026001640264704700000246002395
:100BB0006FF31202C0F608039A421AD0B2F1006F26
:100BC0002FD142F20C02C4F20202536843F0010337
:100BD000536001601068C00745D1106840074DD4CC
:100BE0001068C0064FF0020058BF0320002863D1F0
:100BF00046E042F20C02C4F20202536C43F00103DD
:100C000053640160106CC00730D1106C400758D499
:100C1000106CC0064FF0020058BF032000286FD1AF
:100C200051E0B0F1046F3CBF0320704742F20C0268
:100C3000C4F20202D2F8843043F00103C2F88430D7
:100C40000160D2F88000C00714D1D2F880004007BC
:100C50005BD4D2F88000C0064FF0020058BF0320DA
:100C6000002873D153E0002030BB09E000200028A9
:100C700046D128E00020002868D148E00120D8B9FA
:100C80004FF480111068C0070AD11068400709D4DA
:100C90001068C0064FF0020058BF032003E000BFF9
:100CA000002000E00120A1F1010310B9012919463B
:100CB000E8D1002B08BF0420516821F001015160E8
:100CC00070470120E0B94FF4801100BF106CC007DD
:100CD0000AD1106C400709D4106CC0064FF0020016
:100CE00058BF032003E000BF002000E00120A1F175
:100CF000010310B901291946E8D1002B08BF0420CF
:100D0000516C21F00101516470470120F0B94FF49A
:100D1000801100BFD2F88000C0070BD1D2F880004C
:100D2000400709D4D2F88000C0064FF0020058BF37
:100D3000032002E0002000E00120A1F1010310B92E
:100D400001291946E6D1002B08BF0420D2F88410EF
:100D500021F00101C2F884104FF00461096841F2EA
:100D60000001C0F64001096842F20001C0F64001EE
:100D70000968704780B542F63620C0F6000040F2A0
:100D8000901C013848236FF00102C2F2000C4FF0B2
:100D9000000E00BF0CEB02010B71837802321A2A9D
:100DA00000F1010081F805E0F4D140F21E30ACF80A
:100DB000000040F60020C2F200001E210180C0F8B1
:100DC00004C080BD40F20000C2F200007047000085
:100DD00040F20800C2F200007047000080B542F601
:100DE0002420C0F6000040F2901C013848236FF028
:100DF0000102C2F2000C4FF0000E00BF0CEB02012A
:100E00000B7183780232202A00F1010081F805E09D
:100E1000F4D14FF44970ACF8000040F60020C2F263
:100E2000000024210180C0F804C080BD40F2F00021
:100E3000C2F200007047000080B542F64520C0F6BF
:100E4000000040F2901C013841236FF00102C2F211
:100E5000000C4FF0000E00BF0CEB02010B71837809
:100E600002320A2A00F1010081F805E0F4D140F2D3
:100E70000E30ACF8000040F60020C2F200000E2157
:100E80000180C0F804C080BD0020704780B542F6E4
:100E90001C20C0F6000040F2901C013848236FF07F
:100EA0000102C2F2000C4FF0000E00BF0CEB020179
:100EB0000B71837802320C2A00F1010081F805E001
:100EC000F4D14FF44470ACF8000040F60020C2F2B8
:100ED000000010210180C0F804C080BD00207047D0
:100EE00070B54FF2E870C1F6FF700168826889182A
:100EF00031D0406840F2200C6FF00102C2F2000CC9
:100F00004FF0370E002300BF0CEB02050EEB1176FD
:100F1000B1F1204F02F102024FEA117438BF04F11F
:100F2000300609010E2A2E716B71EDD10CF1100102
:100F300004224FF0370C00230CEB1075B0F1204F5A
:100F40004FEA107638BF06F1300501F8025F000164
:100F5000013A4B70F0D140F21810C2F2000070BD9F
:100F600040F200424FF6FF71C0F20012C0E90012D9
:100F700070470000B0B58B790A88032B0BD07BB982
:100F80004979282901F00F0E18D0182908BF0261ED
:100F9000110616D12EE04FF0000E110611D129E0F6
:100FA00003F0080C0B79C97903F00403634401F0E2
:100FB000030103EB010E110603D11BE04261110690
:100FC00018D000234FF00F0C002104E00131082954
:100FD00003F104030ED022FA01F4E407F6D004680A
:100FE0000CFA03F5AC43046004680EFA03F52C43D5
:100FF0000460EBE7B2F5807F38BFB0BD120A002372
:101000004FF00F0C002104E00131082903F1040323
:101010000ED022FA01F4E407F6D044680CFA03F586
:10102000AC43446044680EFA03F52C434460EBE79C
:10103000B0BD000070B540F29025D0F80200C2F2B9
:101040000005D5F8882403BA022602200021934225
:101050004FF0FF022DD3D5F89844A34229D895F834
:101060003805C5F88C34012807D1FFF78DFDD5F878
:101070009004FFF797FCFFF787FCD5F88C44FFF747
:1010800083FDD5F89C04B0F5806F0AD0B0F5805F81
:1010900005D0B0F5006F07D1600505D101E020054E
:1010A00002D12046FFF77EFCFFF76EFCFF210022F5
:1010B00000204AF25A2385F84214012185F8386548
:1010C000A5F8403485F84324C5F8A41470BD000089
:1010D0002DE9F04381B090F80290C5780779447902
:1010E000C6790620C0F2140001214FF00108FFF775
:1010F0005DFBFFF7A7FA96B1280440EA096040EAD1
:101100000720204431020125012988BF3502061F2E
:1011100056F8040F00BAFFF79FFA013DF8D1FFF728
:101120008BFA40F290214AF25A52C2F20001C0F208
:10113000FF02C1F84024020E81F84424020C81F819
:101140004524020AC1F8A48481F8462481F84704A2
:1011500001B0BDE8F0830000B0B540F29024C2F2C7
:10116000000494F8381502293AD14188D4F8802433
:1011700049BA0A44B2F5806F0CD859B1033000BFA8
:10118000D4F8802410F8013F551C0139C4F880546C
:10119000A354F5D1D4F88004B0F5806F2DD1FFF7BA
:1011A000F3FCD4F88004042811D30025D4F88C046F
:1011B00054F82510FFF7FAFCD4F88C04D4F8801406
:1011C00001350430B5EB910FC4F88C04EED3FFF772
:1011D000DBFB0020FF21C4F88004C4F88C0401E08C
:1011E000FF2000214AF25A3284F843040120A4F877
:1011F000402484F84214C4F8A4040020B0BD0000C8
:1012000040F29020C2F20000D0F8900444F6383149
:101210000068C4F25411401A18BF01204000704702
:10122000B0B54FF2E070C1F6FF7000684FF60041B4
:10123000C0F2FF3144F2000E01EA802040F290211A
:101240004FF40062C0F6000EC2F20001B0F5802F2C
:1012500038BF4FF480624FF0006C00F10063AEEBDA
:1012600002040025C1F88054C1F888E4C1F88C5408
:10127000C1F89044C1F894C4C1F89834C1F89C24D2
:10128000C1F8A004B0BD000070B540F29024C2F2D5
:10129000000494F83805072818BF70BD6420FFF7D4
:1012A00041FBD4F88804D0E90056142000F098F8E7
:1012B0004EF28020CEF200004FF480110160022037
:1012C000C0F218000021FFF771FA1720C0F21C00CD
:1012D0000021FFF76BFA1724C0F210042046012109
:1012E000FFF778FA20460021FFF774FA40F2CC703D
:1012F000C2F2000085F3088831460660BDE8704000
:101300000847000070B5D0E90056142000F068F8D6
:101310004EF28020CEF200004FF4801101600220D6
:10132000C0F218000021FFF741FA1720C0F21C009C
:101330000021FFF73BFA1724C0F2100420460121D8
:10134000FFF748FA20460021FFF744FA40F2CC703C
:10135000C2F2000085F3088831460660BDE870409F
:101360000847000082B000F099F8032000F086F8EA
:10137000FFF756FFFFF744FF28B944F20000C0F61C
:101380000000FFF7BFFFFFF70FF8012000F036F96C
:101390001720C0F21C000121FFF708FA14200021D9
:1013A0000022002500F030F840F2D074C2F20004B0
:1013B00040F2A00240F2C80345F60041C2F200022A
:1013C000C2F20003C4F200012046009500F0BAFC0E
:1013D000204600F039FC00BFFFF756FFFCE7000095
:1013E000002848BF704700F01F01012202FA01F1F6
:1013F0004EF280124009CEF2000242F82010BFF3F4
:101400004F8FBFF36F8F7047B0B54EF60C5ECEF2C4
:10141000000EDEF800304FF0FF35C3F3022383F0F7
:101420000704042C28BF0424033B05FA04F438BF46
:101430000023A143994005FA03F39A4300F00F03F8
:10144000043B4EF2001C7344CEF2000C11430C33EB
:10145000B0F1FF3F4FEA011100EB0C02C8BF02F5EB
:1014600040730028197048BFB0BD00F01F01012271
:1014700002FA01F140094CF82010B0BD4EF60C51B3
:10148000CEF200010A684FF6FF031A4060F30A2209
:1014900042F0806040F0FD700860704780B5FFF753
:1014A000E5F901200121FFF715F900BFFFF76CF9FD
:1014B0000028FBD002202F210122FFF79FF90020F6
:1014C000FFF754F902200121FFF704F91920FFF773
:1014D0003FF90128FAD10020FFF7C6F80420FFF7F2
:1014E000DFF80420FFF7CEF80120FFF7E7F802202D
:1014F000FFF7DEF9FFF7E6F90228FBD10020FFF73E
:10150000DDF8BDE8804000F001B80000B0B541F260
:10151000040441F20025C4F20204C0F27A05FFF788
:10152000D1F902280BD0A0BB206D800531D5E06A2F
:10153000800144BF46F60045C0F2DC2529E0D4F81E
:1015400000C021682268C1F38341C2F341721301D4
:10155000581C0F29034618BF0223002A18BF034650
:101560005FEACC3003EB010006D440F60011C0F274
:101570003D0100FB01F50CE02168890301D44543DE
:1015800007E0216DC1F301310231B5FBF1F101FB3F
:1015900000F540F22010C2F200000560216804A2AC
:1015A000C1F30311515C026822FA01F10160B0BD80
:1015B0000000000000000000010203040607080903
:1015C0004EF21001CEF200010A68042822F0040253
:1015D00008BF04320A60704740F23A00C2F20000CD
:1015E000402101807047000040F23A02C2F200023E
:1015F00011880B18084613807047000080B508B3A7
:1016000040F22010C2F20000006840F6FF51C0F224
:101610002771884231DD47F6FF11C0F60321884269
:1016200042DC40F60061C0F2277188424ED044F29D
:101630000041C0F6950188425CD10520BDE880409C
:10164000FFF748B90120FFF753F91620C0F2180040
:101650000121FFF7ABF841F62C70FEF793FE4FF433
:10166000FA50FEF795FE41F65470FEF797FE022001
:101670000121BDE88040FEF775BE46F60041C0F28C
:10168000DC21884227D04AF20021C0F24A41884238
:1016900026D04DF60001C0F2B85188422AD103206D
:1016A000BDE88040FFF716B947F60021C0F60321D8
:1016B00088421AD04BF20001C0F67131884218BF3F
:1016C00080BD0620BDE88040FFF704B90220BDE8D8
:1016D0008040FFF7FFB80120BDE88040FFF7FAB86F
:1016E0000020BDE88040FFF7F5B80420BDE8804049
:1016F000FFF7F0B880BD0000016C21F00201016429
:10170000016E21F00201016670470000016C21F0BA
:10171000010101640021416401658021C164016C03
:1017200041F41E4101647047016C41F008010164FD
:10173000016C41F00401016470470000B0B5887A83
:1017400045F600450028C4F200054AD00A7855F84D
:1017500022305B060BD555F822C040F60F730CEA19
:10176000030C48F2C00343EA0C0345F822300A7820
:1017700055F822305B040BD555F822C040F60F73A4
:101780000CEA030C4CF2800343EA0C0345F82230C8
:101790000A788B7855F8220040F60F7420404CF2FE
:1017A0008004012B08BF48F2C004204445F8220001
:1017B0000A7843F60F7C48F2800E40F63F7355F8E6
:1017C0002200184040EA0E0045F82200087848F24E
:1017D000800255F8201001EA0C01114345F8201051
:1017E000B0BD0A788B7855F822C0012B09D15FEA89
:1017F0004C6340F63F7CE9D548F2C00E40F60F73CB
:10180000DDE75FEA4C4343F60F7CDFD54CF2800EF8
:1018100040F60F73D3E700002DE9F0430A7845F650
:101820000040C4F2000050F8223048F680774E782D
:101830003B40334340F82230CB78032B0AD84FF497
:101840000072DFE803F00B02070901228A724FF4ED
:10185000806203E0002201E04FF4C0620B7848F69A
:101860008F1650F8237037403A4340F823208B7886
:101870008A7A012B55D1002A00F08F800A7840F631
:101880000F6750F8223040F23C063B4048F2801788
:101890003B4340F822308B88076D0A78C2F200067D
:1018A000356807EBC20745F81730CB88076D3668F7
:1018B00007EBC20706EB4707BB6050F822305B0618
:1018C00009D550F8223040F60F773B4048F2C00768
:1018D0003B4340F822300A7850F822305B0409D5A7
:1018E00050F8223040F60F773B404CF280073B43E4
:1018F00040F822300A7840F60F7750F822303B400B
:101900004CF280073B4340F822300A7843F60F77C9
:1019100050F822303B4048F280073B4340F82230E9
:1019200055E0002A60D00A7840F60F6750F8223060
:1019300040F23C0C3B4048F280173B4340F82230D9
:101940008B88076D0A78C2F2000CDCF8006007EBA8
:10195000C20746F81730CB88076DDCF8006007EB4C
:10196000C20706EB4707BB60036DDCF8007003EBB2
:10197000C2050B8948F2000E4FEAC2093E1D3F2BFB
:10198000CFF6FF7E63D35F094FF0FF38DC0608BF58
:1019900008EB53174EEA87275EE040F23C068B883F
:1019A000076D0A78C2F20006366807EBC20746F8F0
:1019B000173050F822305B0609D550F8223040F637
:1019C0000F773B4048F2C0073B4340F8223009788C
:1019D00040F63F7350F821201A4048F2A0035A40C5
:1019E00040F82120BDE8F08340F23C06CB88076D2B
:1019F0000A78C2F20006356807EBC20705EB470715
:101A0000BB6050F822305B0409D550F8223040F614
:101A10000F773B404CF280073B4340F82230036D88
:101A20000A780D89316803EBC2033F2D01F10C01E7
:101A30006FD36F094FF0FF36EC0608BF06EB551762
:101A400048F20006CFF6FF7646EA872766E00124D3
:101A50009C4304EB5304A702BCB246F81540046D46
:101A6000DCF800704C443F2B07F10C0609D35F09EA
:101A70004FF0FF3CDD0608BF0CEB53174EEA8723FF
:101A800004E001279F4307EB53039B029BB246F8F8
:101A9000143050F822305B0609D550F8223040F659
:101AA0000F773B4048F2C0073B4340F822300A78AA
:101AB00050F822305B0409D550F8223040F60F77F9
:101AC0003B404CF280073B4340F822300A7840F616
:101AD0000F7750F822303B4048F2C0073B4340F8B4
:101AE00022300A7843F60F7750F822303B404BF211
:101AF00080077B4040F82230097840F63F7350F869
:101B000021201A4048F280031A4340F82120BDE802
:101B1000F0830127AF4307EB5507BF02BFB241F87F
:101B2000137050F8221043F60F7319404BF28003E4
:101B3000594040F82210BDE8F0830000016C21F00C
:101B400008010164016C21F0040101647047000088
:101B5000C94341647047000070B514460D460646FF
:101B600000F076F8032805D1304681212A46234625
:101B700000F050FC002070BD002A08BF704740F202
:101B80003C03C2F200031B6801324FEA520C03EB24
:101B900041030121BCF1010F88BF510802381A1F0F
:101BA00032F8043F013920F8023FF9D170470000B4
:101BB000C26C61F30602C264C16C41F08001C16471
:101BC00070470000002A08BF704740F23C03C2F291
:101BD00000031B6801324FEA520C03EB4103012161
:101BE000BCF1010F88BF510802381A1F30F8023FBC
:101BF000013922F8043FF9D17047000080B54AB29C
:101C000001F07F0100EB411000F10C01B2F1FF3F48
:101C1000C8BF00F5867140F63F70C8BF43F60F702D
:101C20000B7845F6004CC4F2000C5CF823E048F257
:101C3000B00200EA0E00C8BF4BF2800250404CF8E0
:101C400023000020C87280BD0068FFF755BD00006A
:101C500090F82402704700002DE9F041044669B174
:101C600060684269002A08BFBDE8F08194F8240248
:101C700003281FD12046BDE8F041104794F8200208
:101C8000022817D101F07F0604EB46152F4637F8DE
:101C9000260F37F8123C98420ED9C61AB0B22A6AFB
:101CA000984238BF0346204600213E80BDE8F041FF
:101CB00000F0B0BBBDE8F081284630F8241F45F69F
:101CC00000479942C4F2000720D1298D99421DD3C3
:101CD000B4F82222914219D24FF00008A0F80080F7
:101CE000204600210022002300F094FBC5F820814B
:101CF000C5F81A8157F8260043F60F7108404BF2D9
:101D00008001484047F82600BDE8F0816068C1685E
:101D100029B194F82402032801D1204688470520E0
:101D200084F820020020C4F82001C4F81A013868A1
:101D300043F60F7108404BF2800148403860BDE81F
:101D4000F0810000B0B58C4680E80E004FF0010E27
:101D500000F1100300210022002480F824E200BFDB
:101D60008518995220322C736C73B2F5807F04F180
:101D7000010485F80EE029626983C5F81210EFD1DD
:101D800000210022002300BF8518203285F80C3185
:101D900085F80D31B2F5807F03F1010385F80E114E
:101DA000A5F81411C5F82011A5F81A11C5F81011DD
:101DB000EAD16046BDE8B040FFF7A8BC10B50446C4
:101DC00059B160688269A2B394F82402032818BF4D
:101DD00010BD2046BDE81040104794F820020328AB
:101DE00027D101F07F0004EB4011B1F82631B1F8A2
:101DF000142193421ED99B1A01F5937C9CB2ACF836
:101E00000030944228BF14460023D4FA52F2A1F8BD
:101E10001C31A1F81A2145F60041C4F2000151F825
:101E2000202043F60F731A404BF280035A4041F8CA
:101E3000202010BD6068016909B1204688474FF035
:101E4000040C204600210022002384F820C2BDE8B3
:101E5000104000F0DFBA000010B5044600F5037032
:101E600004F5057100F0C2FD012084F8200294F809
:101E70000C02B4F8121200F01F000228A4F822127B
:101E800009D001280CD0002818BF10BD2046BDE89D
:101E9000104000F065B82046BDE8104000F080B961
:101EA0002046BDE8104000F0D3BC0000032380F8BA
:101EB0002032B0F91431C0F820110021A0F81C1113
:101EC000D2FA53F1A0F82821A0F82621A0F81A117F
:101ED00045F60040C4F20000016843F60F7211405D
:101EE0004BF28002514001607047000013460A46E1
:101EF0004FF0020C00210385C38480F820C200F05B
:101F000089BA00004FF0040C00210022002380F861
:101F100020C200F07FBA000080B590F80C1145F6A1
:101F2000004CC4F2000C5CF8213043F60F721A40EA
:101F300049F280035A404CF821204FF0010E027BF9
:101F400080F817E15CF8223040F63F71194048F202
:101F5000900359404CF8221080F817E080BD000033
:101F6000B0B5044690F80C0204F5037110F0600F50
:101F700005D060688268204690470020B0BD94F884
:101F80000D02092833D8DFE800F0051A323732474E
:101F90006032718194F8240200F0FE00022840F0C3
:101FA000828094F8270228B1B4F82A0240F0020097
:101FB000A4F82A0204F22A2120460222E1E094F841
:101FC000240200F0FE0002286DD1B4F80E020128B0
:101FD00010D1002084F82702B4F82A02626820F0A9
:101FE00002009268A4F82A02204690470FE020469B
:101FF000FFF792FF0020B0BDB4F80E020128F9D11E
:10200000606801228368204684F82722984720468A
:10201000FFF778FF0020B0BDB4F81002002842D1CD
:10202000B4F8120200283ED194F8240203283AD0D2
:1020300094F80E0210F07F0084F826024FF00200A0
:1020400008BF012084F82402E1E7B4F80E024FF043
:10205000FF3202EB1022062A25D8DFE802F004291D
:102060002D2424382400A068006823E0B4F812026C
:10207000012818D194F8240203282DD0022812D167
:10208000002004F50A7184F8280227E0B4F8101241
:10209000B4F80E0240F6FC15C2F20005287011B922
:1020A000B4F81212E9B12046FFF736FF0020B0BDA8
:1020B000A0688068804753E0C0B2052836D8DFE8C2
:1020C00000F0033C3F424548A068006943E02046D9
:1020D000FFF722FF002043E004F2292120460122DD
:1020E0004FE094F82412C0B203290CD00229DAD1AF
:1020F00000283FF48CAF84F829026068032102684D
:1021000084F824120FE000283FD094F8291281426D
:102110007FF47DAF60684168204688476068297811
:10212000026884F829122046904770E76068826848
:1021300020469047002000210FE0A06840690AE097
:10214000A068806907E0A068C06904E0A068406AF0
:1021500001E0A068006A8047012100293FF44AAFEE
:1021600000283FF447AF0388002B3FF443AFB4F897
:102170001222002A3FF43EAF4168934238BF1A460C
:102180002046FFF7B3FE0020B0BD6268022184F84C
:102190002412516884F829022046884737E7000056
:1021A00070B5044690F80C0204F5037510F0600F4A
:1021B00006D060682946826820469047002070BD9E
:1021C00094F80D12B4F8100203291BD0012922D073
:1021D00079BB94F82412032935D002292ED110F0AE
:1021E0007F0600F0800503D0C1B2204600F0D8FB86
:1021F00004EB461000F10C01002D08BF00F58671BC
:1022000000202FE094F82412032933D0022915D19D
:10221000410608D110E094F8241203293AD002298B
:102220000CD1410608D0C1B2204600F0B9FB002015
:1022300070BD2046FFF770FE002070BD2046FFF7FE
:102240006BFE002070BD00F07F0104EB411202F133
:102250000C01000658BF02F58671C87A0138B0FA41
:1022600080F0400921F80C0F20460222FFF73EFEC5
:10227000002070BDB4F80E1231B910F07F0103D008
:10228000C1B2204600F08CFB606829468268204677
:1022900090470EE0B4F80E120029CDD1410608D0C7
:1022A000C1B22046FFF7AAFC606829468268204632
:1022B00090472046FFF726FE002070BD0068FFF71C
:1022C00033BA000010B50446807A70B1A08818B9FE
:1022D0002089FFF789F9A080E088002818BF10BD89
:1022E0002089FFF781F9E08010BDA078012807D18F
:1022F000A0880028F8D12089FFF776F9A08010BDCA
:10230000E0880028F0D12089FFF76EF9E08010BD49
:102310004AB201F07F0100EB4113006803F58671BA
:10232000002A48BF03F10C01FFF708BA10B500F10D
:10233000100E00224FF0010C00230021C4182EF8CB
:102340000320203321736173B3F5807F01F1010114
:1023500084F80EC022626283C4F81220EED10021FC
:10236000002200238418203284F80C3184F80D31C7
:10237000B2F5807F03F1010384F80E11A4F8141163
:10238000C4F82011A4F81A11C4F81011EAD110BD34
:10239000B0B54DB2046801F07F01002D00EB411093
:1023A00005D4002100F5867580F80E1103E000F1D8
:1023B0000C0501218173581C20F00100288128465A
:1023C000EA70FFF77FFF20462946BDE8B040FFF7DF
:1023D00023BA000001F07F0100EB4110C0F820217A
:1023E000B0F914214FF0000CD3FA52F2A0F81CC13E
:1023F000A0F81A2145F60040C4F2000050F8212050
:1024000043F60F731A404BF280035A4040F82120E4
:1024100070470000F0B581B001F07F06016800EB65
:102420004610858A1C46002302628383D4FA55F342
:10243000A54238BF2C46857D45F60047C4F200070B
:10244000438384840DB351F8263040F23C013D6D46
:10245000C2F2000109685B0605EBC60301EB43010C
:1024600059BF4C601030CC601230018810462246B3
:10247000FFF7A8FB57F8260040F60F7108404CF212
:102480008001084347F826000FE0018A10462246E3
:10249000FFF798FB40F23C01386DC2F20001096879
:1024A00000EBC60001EB4000446057F8260040F600
:1024B0003F71084048F2B001484047F8260001B09B
:1024C000F0BD00002DE9F041044600680D4650F8CB
:1024D0002110080629D408054DD4080458BFBDE8CA
:1024E000F08145F60048C4F2000858F8250040F68F
:1024F0008F72104048F8250004EB451797F8160135
:10250000002872D040F23C00D8F85030C2F20000EF
:1025100002684904D7F8200103EBC50102EB410131
:1025200079D4CE68B7F8121178E045F60040C4F2CD
:10253000000050F8251048F60F72114040F82510A1
:1025400040F23C01006DC2F20001096800EBC500D9
:1025500001EB4000416804EB4510026A6FF39F21D4
:102560000A44818302626DB3438B5BB320462946E4
:10257000FFF750FF2AE045F60046C4F2000640F29D
:102580003C01306DC2F20001096800EBC50001EBAF
:102590004000C26804EB45106FF39F22B0F812119F
:1025A000A0F81C2104F50570FFF7E6FA306840F644
:1025B0008F7100EA0102204629463260BDE8F041F1
:1025C000FFF74ABC20462946FFF746FB94F8240251
:1025D000022808D194F8261229B12068FFF7E8FAFA
:1025E000002084F82602BDE8F08140F23C01D8F8D2
:1025F0005000C2F20001096800EBC50001EB400089
:10260000C668D7F82001B7F812116FF39F2632463B
:10261000FFF7B2FA11E04E68B7F810116FF39F267A
:102620003246FFF7A9FA58F8250040F60F71084026
:1026300048F2C001084348F82500B7F81C01B7F874
:102640001A313044A7F81C01D7F82001002B00EB09
:102650000602C7F8202118BF002D05D120462946C3
:10266000BDE8F041FFF7AABBB7F814018642F5D3E5
:1026700020462946BDE8F041FFF7ACBE01F07F01DE
:1026800000EB4110B0F81C017047000040F29020B0
:10269000C2F2000090F83815062904BF072180F81F
:1026A000381570472DE9F041022A3CBF0220BDE8F1
:1026B000F08140F290260446C2F200060020C6F8DF
:1026C000A40408884AF2605200BACFF6FF7202EB07
:1026D0001040072839D8DFE800F0043A74787C8E7F
:1026E000929F4FF2E071C1F6FF7109684FF6004208
:1026F000C0F2FF3244F200084FF0010E02EA8121DD
:102700004FF40062C0F600084AF25A0086F838E535
:10271000B1F5802F38BF4FF480624FF0006C01F1AB
:102720000063A8EB02070025C0F2FF00C6F8805442
:10273000C6F84004C6F88884C6F88C54C6F890746D
:10274000C6F894C4C6F8983434E0022573E04FF21A
:10275000E071C1F6FF7109684FF60042C0F2FF3226
:1027600044F200084FF0010E02EA81214FF40062AA
:10277000C0F600084AF25A1386F838E5B1F5802F02
:1027800038BF4FF480624FF0006C01F10067A8EB96
:1027900002000025C0F2FF03C6F88054C6F840349A
:1027A000C6F88884C6F88C54C6F89004C6F894C459
:1027B000C6F89874C6F89C24C6F8A014C6F8A4E419
:1027C00039E00846FEF736FC34E00846FEF7C4FC64
:1027D00030E0042086F83805FEF7D6F9D6F89004E4
:1027E00044F63831C4F25411FEF7E0F9FEF7CCF8A4
:1027F0004AF25A4008E00846FEF76AFC1AE0062052
:1028000086F838054AF25A60C0F2FF00C6F8400464
:102810000120C6F8A4040DE00120C6F8A404D6F8EF
:1028200088044AF25A71C0F2FF0100BAC6F8401497
:10283000C6F844040025D6F8A40428B106F588613A
:1028400020464022FFF788F92846BDE8F0810000C5
:10285000B0B5044690F82402013802280ED860680A
:1028600004F50371826820469047B4F812120546B9
:10287000002908BF002D07D02846B0BD2046FFF72D
:102880004BFB00252846B0BD2046FFF73BFB284602
:10289000B0BD0000F0B581B004680546676C266CD9
:1028A000380471D4780522D520464FF48061FFF7B3
:1028B0004FF9FEF791FE2846FFF738FD2846002124
:1028C00000224023FFF764FD284680210022402398
:1028D000FFF75EFD28680021FFF76AF96868026A61
:1028E000012085F8240212B1284601219047B8053D
:1028F0000CD516F4007009D020464FF40071FFF794
:1029000027F96868C16909B128468847F80507D5DD
:1029100016F4807004D020464FF48071FFF718F948
:10292000380517D516F4006014D020464FF4006126
:10293000FFF70EF995F8240285F82502042085F8A2
:1029400024022846FFF7BAFC6868026A12B12846DA
:1029500002219047F80421D516F480501ED0286833
:10296000FFF7ECF86868026A95F8250285F82402FA
:1029700012B128460321904720464FF4805101B000
:10298000BDE8F040FFF7E4B8606C01047FF58AAF62
:1029900000F00F012846FFF795FDF5E701B0F0BD07
:1029A00080B54AB201F07F0100EB411000F10C014B
:1029B000B2F1FF3FC8BF00F5867140F63F70C8BF57
:1029C00043F60F700B7845F6004CC4F2000C5CF82F
:1029D00023E048F2900200EA0E00C8BF49F28002EC
:1029E00050404CF823000120C87280BD0A78027064
:1029F0004A7842704A8842808A888280C988C18029
:102A00007047F1EE100A4FF6FF71C0F2C03120EAB4
:102A1000010040F04070E1EE100A70474849442040
:102A2000494150004849442049415020496E74654D
:102A30007266616365004849442049415020436FF4
:102A40006E6669670041727465727900702A0008C9
:102A50000000002028010000C0010008982B000899
:102A600028010020E00E0000DC010008000000004A
:102A70002900000040000020120000006C0000202F
:102A800009211001000122200000000004030904B4
:102A90001A03000000000000000000000000000019
:102AA0000000000000000000000040000060004046
:102AB00009022900010100C03209040000020300DC
:102AC00000000921100100012220000705810340B8
:102AD000000107050103400001000000120100028F
:102AE000000000403C2E01AF000201020301000083
:102AF00006FF000901A101150025FF750895400991
:102B000001810295400901910295010901B102C0BC
:102B100009050008BD04000869050008F50400085F
:102B2000D5040008FD0400083D050008350600082E
:102B3000F904000890020020D10D0008DD0E000805
:102B4000C50D0008890E00082D0E0008390E00087A
:102B50008D0E0008E10E0008DD0D0008750D00085F
:102B6000040000001C0000200500180005001800EB
:102B70000500180000200040008000000014014003
:102B800000140140001401401A0000002000002041
:082B900000127A0000000000B1
:040000050800018569
:00000001FF
